// Copyright 2014 The go-ethereum Authors
// This file is part of the go-ethereum library.
//
// The go-ethereum library is free software: you can redistribute it and/or modify
// it under the terms of the GNU Lesser General Public License as published by
// the Free Software Foundation, either version 3 of the License, or
// (at your option) any later version.
//
// The go-ethereum library is distributed in the hope that it will be useful,
// but WITHOUT ANY WARRANTY; without even the implied warranty of
// MERCHANTABILITY or FITNESS FOR A PARTICULAR PURPOSE. See the
// GNU Lesser General Public License for more details.
//
// You should have received a copy of the GNU Lesser General Public License
// along with the go-ethereum library. If not, see <http://www.gnu.org/licenses/>.

package types

import (
	"bytes"
	"math/big"
	"reflect"
	"testing"

	"github.com/core-coin/go-core/common"
	"github.com/core-coin/go-core/rlp"
)

// from bcValidBlockTest.json, "SimpleTx"
func TestBlockEncoding(t *testing.T) {
	blockEnc := common.FromHex("f902a9f901f9a00000000000000000000000000000000000000000000000000000000000000000a00000000000000000000000000000000000000000000000000000000000000000948888f1f195afa192cfee860698584c030f4c9db1a0ef1552a40b7165c3cd773806b9e0c165b75356e0314bf0706f279c729f51e017a00000000000000000000000000000000000000000000000000000000000000000a00000000000000000000000000000000000000000000000000000000000000000b90100000000000000000000000000000000000000000000000000000000000000000000000000000000000000000000000000000000000000000000000000000000000000000000000000000000000000000000000000000000000000000000000000000000000000000000000000000000000000000000000000000000000000000000000000000000000000000000000000000000000000000000000000000000000000000000000000000000000000000000000000000000000000000000000000000000000000000000000000000000000000000000000000000000000000000000000000000000000000000000000000000000000000000000000000000000008302000080832fefd8825208845506eb0780a0bd4472abb6659ebe3ee06ee4d7b72a00a9f4d001caca51342001075469aff49888a13a5a8c8f2bb1c4f8aaf8a803018207d0941a1f598a1b3f1614c7c5f3ad27d0ef4875a874ec0a8211231bb83826ebe8b912ab14c5cee0093ef4299db793dd12d99b37513379d114823a841dcbc2f7f300896ee6b643229ba6ee6bb9e5bda7f5888dfffef5b8386cd7f803fc1be106018560c13024140ae361725a79224b5f998b81916a2bf568ce31f0d1aa21c83fbb1148e9a93c8e0e3c917e2cf46da408941a1f598a1b3f1614c7c5f3ad27d0ef4875a874ecc0")
	var block Block
	if err := rlp.DecodeBytes(blockEnc, &block); err != nil {
		t.Fatal("decode error: ", err)
	}

	check := func(f string, got, want interface{}) {
		if !reflect.DeepEqual(got, want) {
			t.Errorf("%s mismatch: got %v, want %v", f, got, want)
		}
	}
	check("Difficulty", block.Difficulty(), big.NewInt(131072))
	check("GasLimit", block.GasLimit(), uint64(3141592))
	check("GasUsed", block.GasUsed(), uint64(21000))
	check("Coinbase", block.Coinbase(), common.HexToAddress("8888f1f195afa192cfee860698584c030f4c9db1"))
	check("MixDigest", block.MixDigest(), common.HexToHash("bd4472abb6659ebe3ee06ee4d7b72a00a9f4d001caca51342001075469aff498"))
	check("Root", block.Root(), common.HexToHash("ef1552a40b7165c3cd773806b9e0c165b75356e0314bf0706f279c729f51e017"))
	check("Hash", block.Hash(), common.HexToHash("65f0661bce136548827d04f410c79e45290156c4da45c0c0284c73f7ac9e6562"))
	check("Nonce", block.Nonce(), uint64(0xa13a5a8c8f2bb1c4))
	check("Time", block.Time(), uint64(1426516743))
	check("Size", block.Size(), common.StorageSize(len(blockEnc)))

	tx1, _ := NewTransaction(
		3,
		common.HexToAddress("0x1A1f598a1b3f1614C7c5F3AD27D0ef4875A874Ec"),
		big.NewInt(10),
		2000,
		big.NewInt(1),
		common.FromHex("1123"),
	).WithSignature(
		HomesteadSigner{},
		common.Hex2Bytes("26ebe8b912ab14c5cee0093ef4299db793dd12d99b37513379d114823a841dcbc2f7f300896ee6b643229ba6ee6bb9e5bda7f5888dfffef56cd7f803fc1be106018560c13024140ae361725a79224b5f998b81916a2bf568ce31f0d1aa21c83fbb1148e9a93c8e0e3c917e2cf46da40852e9afe4b052cd457d485c62b0e55a6db68f1da40845e4d7349e1df3ecac5db2b90bee5f9f15be07e9470b0c7ffe2f05e9d5802c26b97d81"),
	)
	check("len(Transactions)", len(block.Transactions()), 1)
	check("Transactions[0].Hash", block.Transactions()[0].Hash(), tx1.Hash())

	ourBlockEnc, err := rlp.EncodeToBytes(&block)
	if err != nil {
		t.Fatal("encode error: ", err)
	}
	if !bytes.Equal(ourBlockEnc, blockEnc) {
		t.Errorf("encoded block mismatch:\ngot:  %x\nwant: %x", ourBlockEnc, blockEnc)
	}
}

func TestUncleHash(t *testing.T) {
	uncles := make([]*Header, 0)
	h := CalcUncleHash(uncles)
	exp := common.HexToHash("1dcc4de8dec75d7aab85b567b6ccd41ad312451b948a7413f0a142fd40d49347")
	if h != exp {
		t.Fatalf("empty uncle hash is wrong, got %x != %x", h, exp)
	}
}
func BenchmarkUncleHash(b *testing.B) {
	uncles := make([]*Header, 0)
	b.ResetTimer()
	for i := 0; i < b.N; i++ {
		CalcUncleHash(uncles)
	}
}
